:100000000C94E8170C9419180C9419180C941918DE
:100010000C9419180C9419180C9419180C9419189C
:100020000C9419180C9419180C9419180C9419188C
:100030000C9419180C9419180C9419180C9419187C
:100040000C9419180C9413550C9419180C94191835
:100050000C9419180C9419180C94B2960C94D0BCEA
:100060000C9419180C94E8640C9419180C94191831
:100070000C9419180C9419180C9419180C9419183C
:100080000C9419180C9419180C9419180C9419182C
:100090000C9419180C9419180C9419180C9419181C
:1000A0000C9419180C9419180C9419180C9419180C
:1000B0000C9419180C9419180C9419180C941918FC
:1000C0000C9419180C9419180C9419180C941918EC
:1000D0000C9419180C9419180C9419180C941918DC
:1000E0000C9419181267446746675367586710677E
:1000F0006167F1B9F4B9E3B9E7B9EDB92BBAF8B969
:10010000FCB902BA06BA0ABA10BA14BA18BA2BBAAB
:100110001EBA22BA26BAECBBF1BBF6BB00BC0ABCC5
:1001200083BC14BC1CBC24BC2EBC38BC42BC51BC1F
:100130005BBC83BC65BC6FBC79BC084AD73B3BCE7B
:10014000016E84BCBFFDC12F3D6C74319ABD5683D6
:100150003DDA3D00C77F11BED9E4BB4C3E916BAA8E
:10016000AABE000000803F05A84CCDB2D44EB938DD
:1001700036A9020C50B9918688083CA6AAAA2ABEC4
:10018000000000803F004E414E494E495459494EAF
:1001900046CDCCCC3D0AD7233C17B7D13877CC2BF2
:1001A000329595E6241FB14F0A000020410000C897
:1001B0004200401C4620BCBE4CCA1B0E5AAEC59D18
:1001C00074434F4D4D554E49434154494F4E0044A1
:1001D000525952554E004552524F525300494E46C5
:1001E0004F004543484F0047322F47332062616438
:1001F00020706172616D65746572730A00536C657D
:1002000065702E2E2E0059206F7574206F66207237
:10021000616E67652028312D32292E0A0058206F23
:100220007574206F662072616E67652028312D32EB
:10023000292E0A004D6573682070726F62696E67BF
:1002400020646F6E652E0A005374617274206D65B0
:1002500073682070726F62696E67207769746820B6
:1002600022473239205331222066697273742E0A74
:10027000004732380A4732392053320053746174D0
:10028000653A20004D65736820626564206C657670
:10029000656C696E6720686173206E6F206461749D
:1002A000612E0A0053206F7574206F662072616E94
:1002B00067652028302D35292E0A00205A3A200063
:1002C00020593A200042656420583A20004D657359
:1002D0006820706F696E742063616E6E6F74206247
:1002E00065207265736F6C7665640A004E6F206DD1
:1002F0006F76652E00456E642066696C65206C69BA
:1003000073740A00426567696E2066696C65206CCB
:100310006973740A005344207072696E74696E6761
:10032000206279746520004E6F74205344207072EF
:10033000696E74696E670A002569730025696D200E
:10034000256973002569682025696D20256973007A
:10035000256964202569682025696D202569730059
:1003600025697920256964202569682025696D2023
:10037000256973005072696E742074696D653A2046
:100380000050726F7465637465642050696E0A0072
:1003900048656174696E672E2E2E003344205072BA
:1003A000696E7465722072656164792E00E201DD08
:1003B00001D601CF01C1016F666600444542554731
:1003C0003A004B494C4C45442E20004D31313320EE
:1003D00053006F6B003344205072696E7465722055
:1003E0004F66662E002F2F20004D31343520533CB0
:1003F000696E6465783E206F7574206F6620726147
:100400006E67652028302D31290A005365747469A0
:100410006E672054726176656C20416363656C651C
:10042000726174696F6E3A200053657474696E6707
:10043000205265747261637420416363656C6572F8
:100440006174696F6E3A200053657474696E672039
:100450005072696E7420416363656C657261746982
:100460006F6E3A200053657474696E67205072692C
:100470006E7420616E642054726176656C204163F5
:1004800063656C65726174696F6E3A2000000116D5
:100490001739FF13191A1812FF1D271C26FFFFFF1B
:1004A0002C0CFFFFFF373836FFFF2C4404FF43FFBF
:1004B000FFFFFFFFFF6C636420636F6E74726173F4
:1004C000742076616C75653A200043290A006162E8
:1004D0006C656420286D696E2074656D7020004322
:1004E0006F6C6420657874727564657320617265E1
:1004F00020003A20007A5F6D696E3A20202D32305C
:10050000207A5F6D61783A20203230005A204F66A1
:100510006673657420004E6F2063617365206C699B
:100520006768740A0041637469766520457874725F
:10053000756465723A2000556E6B6E6F776E20633E
:100540006F6D6D616E643A202200436F6F6C646F53
:10055000776E0050726568656174004D38340044F0
:10056000697361626C652073746570706572730085
:100570004368616E67652046696C616D656E7400E5
:100580004D6F7665006261636B005965730062614F
:10059000636B00466163746F727920526573657492
:1005A00000536176652053657474696E6700546505
:1005B0006D7065726174757265006261636B00478E
:1005C000323800486F6D652058595A00457874726A
:1005D00075646572004D6F7665205A004D6F7665C3
:1005E0002059004D6F76652058006261636B0050A2
:1005F00072656865617420504C4120636F6E6600BF
:100600005049442D44005049442D44005049442D44
:1006100049005049442D49005049442D500050494B
:10062000442D50004E6F7A7A6C65004E6F7A7A6C6A
:1006300065006261636B00000000000000000000C4
:100640000000000000F042000007430000C8422004
:100650006E6F7420656E74657265642E0A000A4DB3
:100660006561737572656420706F696E74733A0AA0
:10067000005A206F66667365743A20004E756D20CF
:10068000582C593A20322C320A00334420507269D7
:100690006E7465722072656164792E00526573759F
:1006A0006D696E67207072696E740057616974209D
:1006B000666F7220757365722E2E2E0046696C650A
:1006C0002064656C657465643A0044656C657469A2
:1006D0006F6E206661696C65642C2046696C653AB2
:1006E00020006F70656E206661696C65642C204621
:1006F000696C653A2000202F0020403A004865616F
:1007000074696E6720646F6E652E005072696E7436
:10071000696E672E2E2E0020573A00486561746975
:100720006E672E2E2E003344205072696E746572EF
:100730002072656164792E0048617264636F64653C
:10074000642044656661756C742053657474696EC9
:100750006773204C6F616465640A00B80B0000B8D1
:100760000B000064000000B80B000000009643007E
:100770000096430000A0400000C8410000A04200D5
:1007800000A0420000C8430000BC4220204D383584
:1007900031205A005A2D50726F6265204F66667381
:1007A000657420286D6D293A0A0020204D323530BD
:1007B0002043004C434420436F6E74726173743A5B
:1007C0000A0020440020490020204D3330312050C1
:1007D000005049442073657474696E67733A0A0067
:1007E00020460020420020480020204D3134352092
:1007F00053004D6174657269616C20686561747540
:100800007020706172616D65746572733A0A0020C0
:100810005A002059002020473239205333205800F5
:10082000205A0020204D3432302053004D6573682B
:1008300020426564204C6576656C696E673A0A00F3
:10084000205A0020590020204D32303620580048D0
:100850006F6D65206F66667365743A0A0020450007
:10086000205A002059002058002042002054002027
:10087000204D323035205300416476616E636564EB
:100880003A20533C6D696E5F66656564726174659C
:100890003E20543C6D696E5F74726176656C5F6674
:1008A000656564726174653E20423C6D696E5F737C
:1008B00065676D656E745F74696D655F6D733E200D
:1008C000583C6D61785F78795F6A65726B3E205A3B
:1008D0003C6D61785F7A5F6A65726B3E20453C6D66
:1008E00061785F655F6A65726B3E0A002054002084
:1008F000520020204D323034205000416363656C3B
:1009000065726174696F6E2028756E6974732F73D8
:1009100032293A20503C7072696E745F616363657E
:100920006C3E20523C726574726163745F616363F4
:10093000656C3E20543C74726176656C5F616363E4
:10094000656C3E0A00204500205A002059002020F6
:100950004D3230312058004D6178696D756D204100
:100960006363656C65726174696F6E2028756E696A
:1009700074732F7332293A0A00204500205A002050
:10098000590020204D3230332058004D6178696D78
:10099000756D206665656472617465732028756E77
:1009A0006974732F73293A0A00204500205A0020E9
:1009B000590020204D39322058005374657073203F
:1009C00070657220756E69743A0A0020204D3230CD
:1009D000302044300A0020204D32303020440020A6
:1009E00044697361626C65640A0046696C616D6597
:1009F0006E742073657474696E67733A0020204DBD
:100A00003134392043203B20556E69747320696E60
:100A10002043656C736975730A00202047323120CA
:100A20002020203B20556E69747320696E206D6D07
:100A30000A007A5F6D696E3A2000795F6D696E3ADF
:100A40002000785F6D61783A20005265706F727493
:100A5000696E6720656E6473746F7020737461745F
:100A600075730A00205A3A0020593A0020436F75E6
:100A70006E7420583A0020453A00205A3A00205916
:100A80003A00583A004361703A454D455247454E49
:100A900043595F5041525345523A300A0043617006
:100AA0003A434153455F4C494748545F4252494796
:100AB00048544E4553533A300A004361703A544FFC
:100AC00047474C455F4C49474854533A300A004326
:100AD00061703A534F4654574152455F504F574506
:100AE000523A300A004361703A4C4556454C494EE3
:100AF000475F444154413A310A004361703A5A5FBA
:100B000050524F42453A310A004361703A415554C0
:100B10004F4C4556454C3A300A004361703A5052AA
:100B2000494E545F4A4F423A310A004361703A508D
:100B3000524F47524553533A300A004361703A418D
:100B400055544F5245504F52545F54454D503A31D1
:100B50000A004361703A454550524F4D3A310A0000
:100B60004649524D574152455F4E414D453A4D61C0
:100B7000726C696E20312E312E34202847697468DA
:100B800075622920534F555243455F434F44455F9B
:100B900055524C3A68747470733A2F2F67697468B1
:100BA00075622E636F6D2F4D61726C696E4669724E
:100BB0006D776172652F4D61726C696E2050524F76
:100BC000544F434F4C5F56455253494F4E3A312E86
:100BD00030204D414348494E455F545950453A33C2
:100BE00044205072696E74657220455854525544C1
:100BF00045525F434F554E543A3120555549443A7A
:100C000063656465326132662D343161322D34376B
:100C100034382D396231322D6335356336326633DF
:100C2000363766660A00205A0020590058002020F6
:100C30004D61783A2000205A0020590058002020A9
:100C40004D696E3A20004F6E20004F666600536F6C
:100C5000667420656E6473746F70733A200020644C
:100C60003A0020693A0020703A0023646566696E94
:100C700065202044454641554C545F4B6420002379
:100C8000646566696E65202044454641554C545F55
:100C90004B69200023646566696E652020444546E3
:100CA00041554C545F4B70200050494420417574AD
:100CB0006F74756E652066696E697368656421205E
:100CC00050757420746865206C617374204B702CAF
:100CD000204B6920616E64204B6420636F6E7374D7
:100CE000616E74732066726F6D2062656C6F772021
:100CF000696E746F20436F6E66696775726174699F
:100D00006F6E2E680A00504944204175746F7475E7
:100D10006E65206661696C6564212074696D656F1C
:100D200075740A00504944204175746F74756E657E
:100D3000206661696C6564212054656D706572611F
:100D40007475726520746F6F20686967680A002087
:100D50004B643A2000204B693A2000204B703A2027
:100D6000000A20436C617373696320504944200A70
:100D7000002054753A2000204B753A2000206D6108
:100D8000783A2000206D696E3A200020643A2000F5
:100D900020626961733A20004F66660A004661640A
:100DA00065204865696768742000426564204C6569
:100DB00076656C696E6720004661696C65642074B5
:100DC0006F20656E61626C6520426564204C6576BB
:100DD000656C696E670A004D657368204265642022
:100DE0004C6576656C20646174613A0A004D6573E8
:100DF0006820706F696E742063616E6E6F7420621C
:100E000065207265736F6C7665640A004D3432310B
:100E100020696E636F727265637420706172616DB8
:100E2000657465722075736167650A004F66667345
:100E3000657473206170706C696564004572723A04
:100E400020546F6F206661722100546F6F206661BD
:100E5000722066726F6D207265666572656E63657D
:100E600020706F696E740A0024F4D43050C38E2051
:100E7000C2A24017828B7011127A910D816CD90A2F
:100E8000A861E108C7586607615143061E4B5D051E
:100E9000C145A7041A411104093D98037139310372
:100EA0004036DB0265339102D4305402802E1D029D
:100EB000632CEE01752AC501B028A001102781011D
:100EC0008F2564012B244B01E0223401AC211F014A
:100ED0008D200D01801FFC00841EED00971DDF009A
:100EE000B81CD200E61BC600201BBC00641AB2006E
:100EF000B219A8000A19A0006A189900D117910028
:100F000040178B00B516840031167E00B3157900AA
:100F10003A157300C7146F0058146A00EE13660088
:100F20008813630025135E00C7125B006C12570024
:100F300015125400C111510070114F0021114B00C6
:100F4000D61049008D1047004610440002104200A0
:100F5000C00F4000800F3E00420F3C00060F3B00D8
:100F6000CB0E3800930E37005C0E3500270E340090
:100F7000F30D3200C10D3100900D3000600D2E00D8
:100F8000320D2D00050D2C00D90C2B00AE0C2900C4
:100F9000850C29005C0C2700350C27000E0C260060
:100FA000E80B2400C40B2400A00B23007D0B2300BE
:100FB0005A0B2100390B2100180B2000F80A1F00E2
:100FC000D90A1E00BB0A1E009D0A1D00800A1D00D2
:100FD000630A1C00470A1B002C0A1B00110A1A0096
:100FE000F7091A00DD091900C4091900AB09190035
:100FF000920917007B091800630917004C091600B5
:1010000036091600200916000A091500F508150012
:10101000E0081400CC081400B8081400A408140058
:10102000900813007D0812006B0813005808120086
:10103000460812003408110023081100120811009C
:1010400001081100F0071000E0071000D0071000A1
:10105000C0071000B0070F00A107100091070E0095
:1010600083070F0074070F0065070E0057070E0077
:1010700049070E003B070D002E070E0020070D004C
:1010800013070D0006070D00F9060C00ED060D0014
:10109000E0060C00D4060C00C8060C00BC060C00D0
:1010A000B0060C00A4060B0099060C008D060B0080
:1010B00082060B0077060B006C060B0061060A0027
:1010C00057060B004C060A0042060A0038060A00C2
:1010D0002E060A0024060A001A060A001006090055
:1010E00007060A00FD050900F4050900EB050900E3
:1010F000E2050900D9050900D0050900C705090066
:10110000BE050900B5050800AD050800A5050900E4
:101110009C050800940508008C050800840508005B
:101120007C050800740508006C05070065050800CB
:101130005D050700560508004E0507004705070036
:101140004005080038050700310507002A0507009B
:10115000230507001C050600160507000F050700FC
:101160000805060002050700FB040600F504070059
:10117000EE040600E8040600E2040700DB040600B3
:10118000D5040600CF040600C9040600C304060007
:10119000BD040600B7040600B1040500AC04060057
:1011A000A6040600A00405009B04060095040500A3
:1011B000900406008A0405008504050080040600EA
:1011C0007A04050075040500700405006B04050031
:1011D00066040500610405005C0405005704050071
:1011E000520405004D0405004804050043040500B1
:1011F0003E0404003A0405003504050030040400F0
:101200002C04050027040400230405001E04040028
:101210001A04040016040500110404000D0404005F
:10122000090405000404040000040400FC03040095
:10123000F8030400F4030400F0030400EC030400CA
:10124000E8030400E4030400E0030400DC030400FA
:10125000D8030400D4030400D0030400CC0304002A
:10126000C8030300C503030024F404D9201BC40CE5
:101270005C0E9804C4095F0265077101F405F9006A
:10128000FB04B30048048700C103690058035500FC
:1012900003034500BE023A008402310053022A00D3
:1012A0002902250004022000E4011C00C8011900E5
:1012B000AF011700980114008401130071011000A0
:1012C0006101100051010E0043010D0036010B00B9
:1012D0002B010B0020010B00150109000C01090076
:1012E00003010800FB000800F3000800EB00070002
:1012F000E4000600DE000600D8000600D20006006A
:10130000CC000500C7000500C2000500BD000400B8
:10131000B9000400B5000400B1000400AD000400F1
:10132000A9000400A5000300A20003009F00040020
:101330009B00030098000300950002009300030047
:10134000900003008D0002008B0003008800020063
:101350008600020084000300810002007F0002007A
:101360007D0002007B00020079000200770001008E
:101370007600020074000200720001007100020099
:101380006F0002006D0001006C0002006A000100A5
:1013900069000200670001006600010065000100AD
:1013A00064000200620001006100010060000100B1
:1013B0005F0002005D0001005C0001005B000100B5
:1013C0005A000100590001005800010057000100B7
:1013D00056000100550001005400010053000000B8
:1013E00053000100520001005100010050000100B3
:1013F0004F0001004E0000004E0001004D000100B2
:101400004C0001004B0000004B0001004A000100AD
:1014100049000100480000004800010047000100A9
:1014200046000000460001004500000045000100A4
:10143000440001004300000043000100420000009E
:101440004200010041000000410001004000010095
:101450003F0000003F0001003E0000003E00010090
:101460003D0000003D0001003C0000003C00000089
:101470003C0001003B0000003B0001003A0000007E
:101480003A00010039000000390001003800000076
:10149000380000003800010037000000370001006C
:1014A0003600000036000000360001003500000064
:1014B0003500000035000100340000003400000059
:1014C000340001003300000033000000330001004D
:1014D0003200000032000000320001003100000044
:1014E0003100000031000100300000003000000039
:1014F000300001002F0000002F0000002F0000002E
:101500002F0001002E0000002E0000002E00010020
:101510002D0000002D0000002D0000002D00010016
:101520002C0000002C0000002C0000002C0001000A
:101530002B0000002B0000002B0000002B000100FE
:101540002A0000002A0000002A0000002A000100F2
:1015500029000000290000002900000029000000E7
:1015600029000100280000002800000028000000D9
:1015700028000000280001002700000027000000CC
:1015800027000000270000002700010026000000BF
:1015900026000000260000002600000026000100B2
:1015A00025000000250000002500000025000000A7
:1015B0002500000025000100240000002400000098
:1015C000240000002400000024000100230000008B
:1015D000230000002300000023000000230000007F
:1015E0002300000023000100220000002200000070
:1015F0002200000022000000220000002200010062
:101600002100000021000000210000002100000056
:101610002100000021000000210001002000000046
:10162000200000002000000020000000200000003A
:101630002000000020000000200001001F0000002A
:101640001F0000001F0000001F0000001F0000001E
:101650001F0000001F0001001E0000001E0000000F
:101660001E0000001E0000004D3834205820592074
:101670005A2045004B494C4C45442E200053544FB2
:10168000505045442E20005072696E74657220736C
:10169000746F707065642064756520746F20657266
:1016A000726F72732E2046697820746865206572A7
:1016B000726F7220616E6420757365204D393939FF
:1016C00020746F20726573746172742E20285465C3
:1016D0006D706572617475726520697320726573CF
:1016E00065742E2053657420697420616674657278
:1016F0002072657374617274696E67290A004E6F97
:10170000204C696E65204E756D6265722077697434
:101710006820636865636B73756D2C204C6173740E
:10172000204C696E653A20004E6F20436865636BFC
:1017300073756D2077697468206C696E65206E75AD
:101740006D6265722C204C617374204C696E653A31
:101750002000636865636B73756D206D69736D61DF
:101760007463682C204C617374204C696E653A2058
:10177000004C696E65204E756D626572206973203C
:101780006E6F74204C617374204C696E65204E75C9
:101790006D6265722B312C204C617374204C696E24
:1017A000653A20004D313130004D3331004D383431
:1017B00020582059205A2045005344207265616406
:1017C000206572726F720A00446F6E6520707269D4
:1017D0006E74696E672066696C650A0020496E76D2
:1017E000616C6964206578747275646572200000AC
:1017F000060900FE070192032120FFFF08FF07FFF3
:1018000000000006000001070706020080808080BB
:10181000800080030202060105A0A005070706005C
:10182000005050F850F85050050707060000207887
:10183000A07028F020050707060000C0C81020404F
:1018400098180507070600006090A040A89068025D
:101850000303060104C0408003070706010020407F
:101860008080804020030707060100804020202060
:10187000408005050506000120A870A82005050583
:101880000600012020F820200203030602FFC040CA
:1018900080050101060003F8020202060200C0C032
:1018A0000505050600010810204080050707060011
:1018B000007088888888887003070706010040C088
:1018C00040404040E005070706000070880870802F
:1018D00080F8050707060000F81020100808F0053A
:1018E000070706000010305090F810100507070693
:1018F0000000F880F00808887005070706000070EF
:101900008080F0888870050707060000F80810201E
:1019100020202005070706000070888870888870DE
:10192000050707060000708888780808700205051A
:10193000060200C0C000C0C00206060602FFC0C00A
:1019400000C04080040707060000102040804020AF
:1019500010050303060002F800F80407070601005B
:10196000804020102040800507070600007088088E
:101970001020002005070706000070880868A8A846
:1019800070050707060000708888F88888880507B2
:1019900007060000F08888F08888F0050707060031
:1019A0000070888080808870050707060000F08836
:1019B00088888888F0050707060000F88080F08096
:1019C00080F8050707060000F88080F08080800519
:1019D0000707060000708880B8888870050707062A
:1019E0000000888888F88888880107070602008038
:1019F0008080808080800507070600003810101066
:101A00001090600507070600008890A0C0A090888D
:101A1000050707060000808080808080F8050707A2
:101A200006000088D8A8888888880507070600006F
:101A30008888C8A8988888050707060000708888E5
:101A400088888870050707060000F08888F0808085
:101A50008005070706000070888888A89068050739
:101A600007060000F08888F0A090880507070600A8
:101A700000788080700808F0050707060000F8204D
:101A800020202020200507070600008888888888F5
:101A90008870050707060000888888888850200518
:101AA00007070600008888888888A8500507070669
:101AB00000008888502050888805070706000088A5
:101AC000888850202020050707060000F80810200D
:101AD0004080F8030707060100E08080808080E0F6
:101AE00005050506000180402010080307070601D0
:101AF00000E02020202020E0050303060004205001
:101B000088050101060000F8020202060205804075
:101B100005050506000070087888780507070600A7
:101B2000008080B0C88888F0050505060000708038
:101B3000808870050707060000080868988888787C
:101B40000505050600007088F88070050707060087
:101B5000003048E0404040400506060600FF70881F
:101B6000887808700507070600008080B0C888885C
:101B700088010707060200800080808080800308BB
:101B8000080601FF200020202020A04004070706AF
:101B90000000808090A0C0A090030707060100C04D
:101BA0004040404040E0050505060000D0A8A8A838
:101BB000A8050505060000B0C88888880505050643
:101BC000000070888888700506060600FFF0888887
:101BD000F080800506060600FF78888878080805EA
:101BE0000505060000B0C8808080050505060000D8
:101BF00070807008F00407070600004040E0404095
:101C000040300505050600008888889868050505A8
:101C10000600008888885020050505060000888891
:101C2000A8A8500505050600008850205088050624
:101C3000060600FF888888780870050505060000FC
:101C4000F8102040F80307070601002040408040BC
:101C5000402001070706020080808080808080038A
:101C60000707060100804040204040800502020630
:101C7000000268900000000600000000000600005E
:101C80000000000600000000000600000000000642
:101C90000000000000060000000000060000000038
:101CA0000006000000000006000000000006000022
:101CB0000000000600000000000600000000000612
:101CC0000000000000060000000000060000000008
:101CD00000060000000000060000000000060000F2
:101CE00000000006000000000006000000000006E2
:101CF00000000000000600000000000600000000D8
:101D000000060000000000060000000000060000C1
:101D100000000006000000000006000000000006B1
:101D200000000000000600000000000600000000A7
:101D30000006000000000006000000000006000091
:101D40000107070602008000808080808005070769
:101D50000600002070A8A0A8702005070706000054
:101D6000304040E04050A80505050600008870504E
:101D70007088050707060000885020F820F8200129
:101D80000707060200808080008080800508080622
:101D900000003048205050209060030101060107E8
:101DA000A0050707060000F888B8B8B888F8050746
:101DB00007060001700878887800F8050505060018
:101DC000012850A05028050303060001F808080266
:101DD00002020602064080050707060000F888A8F0
:101DE0008898A8F8050101060006F8040404060016
:101DF00003609090600507070600002020F820206F
:101E000000F804050506000360902040F003050576
:101E1000060003E020E020E0020202060206408005
:101E20000508080600FF8888888898E880800507EC
:101E3000070600007898987818181802020206021F
:101E400002C0C00202020602FF4080030505060030
:101E50000340C04040E005070706000170888888FD
:101E60007000F8050505060001A0502850A00507E0
:101E7000070600008890A858B8080805070706005C
:101E8000008890B848982038050808060000C0402F
:101E9000C048D83808080507070600002000204081
:101EA0008088700508080600004020007088F888C7
:101EB000880508080600001020007088F88888054A
:101EC00008080600002050007088F8888805080877
:101ED0000600006890007088F888880508080600E9
:101EE000005000708888F8888805080806000020DF
:101EF00050207088F888880507070600003860A021
:101F0000B8E0A0B80508080600FF708880808870D7
:101F10002060050808060000402000F880F080F8E6
:101F2000050808060000081000F880F080F8050891
:101F300008060000205000F880F080F8050707062A
:101F400000005000F880F080F803080806010080C7
:101F50004000E0404040E003080806010020400047
:101F6000E0404040E003080806010040A000E040D7
:101F70004040E0030707060100A000E0404040E0C9
:101F8000050707060000704848E84848700508083B
:101F900006000068900088C8A89888050808060010
:101FA00000402070888888887005080806000010A6
:101FB0002070888888887005080806000020500076
:101FC000708888887005080806000068900070888E
:101FD0008888700508080600005000708888888886
:101FE0007005050506000188502050880508080680
:101FF00000FF1070A8A8A8A87040050808060000F7
:10200000402088888888887005080806000010200D
:102010008888888888700508080600002050008895
:10202000888888700508080600005000888888881D
:102030008870050808060000102088502020202005
:102040000509090600FFC040704848704040E004A0
:1020500008080601FF609090A09090E080050808B5
:1020600006000040200070087888780508080600FF
:102070000010200070087888780508080600002005
:1020800050007008788878050808060000689000FD
:1020900070087888780507070600005000700878F7
:1020A0008878050808060000205020700878887895
:1020B000050606060000D02878A0A85005060606EA
:1020C00000FF70808870206005080806000040202E
:1020D000007088F880700508080600001020007065
:1020E00088F880700508080600002050007088F805
:1020F000807005070706000050007088F8807003A4
:10210000080806010080400040C04040E003080885
:1021100006010020400040C04040E00308080601DE
:102120000040A00040C04040E0030707060100A0B7
:102130000040C04040E0050707060000A040A01096
:10214000788870050808060000689000B0C8888884
:1021500088050808060000402000708888887005FF
:10216000080806000010200070888888700508089C
:102170000600002050007088888870050808060056
:102180000068900070888888700507070600005076
:102190000070888888700505050600012000F80099
:1021A000200507070600FF1070A8A8A870400508C2
:1021B00008060000402000888888986805080806FE
:1021C000000010200088888898680508080600002C
:1021D000205000888888986805070706000050008E
:1021E00088888898680509090600FF1020008888FB
:1021F00088F808700407070601FFC040605060407F
:10220000E00508080600FF5000888888780870FFFD
:10221000E0FFD11000FFFEFFD0FFE0FFC1FFD1E2E1
:1022200040A0C8A6A22FF800238127AC00AFFF640E
:10223000A5FF64FF64A4FFD0FFFE25753A25303268
:102240007500253032753A253032750025756420C9
:10225000253032753A25303275000920007F80FF25
:10226000C0FFC0FFC07F807F80FFC0FFC0FFC03FB6
:10227000001E000C007F80FFC0FFC0FFC07F807F7A
:1022800080FFC0FFC0FFC03F001E000C0047323877
:102290002058590A00416476616E63656400517587
:1022A00069636B2053657474696E6773004C65765F
:1022B000656C20626564004E6F2053442063617238
:1022C00064005072696E742046696C650053746FC7
:1022D00070207072696E7400526573756D65207040
:1022E00072696E74005061757365207072696E74E6
:1022F000004E6F7A7A6C65004E6F7A7A6C65005387
:1023000070656564005370656564006261636B00AD
:102310005265646F204C6576656C2057697A6172EE
:1023200064004261636B20746F204D61696E204DC3
:10233000656E7500476F20746F206E65787420633A
:102340006F726E6572006261636B006E6578740017
:102350006261636B006E657874006261636B004953
:102360006E697469616C697A696E672E2E2E0047FA
:102370003238006261636B004730205A35300047C5
:102380003238205A004730205A3530004732382042
:102390005A0052616973652045787472756465727C
:1023A0002031306D6D005072656865617400526552
:1023B0006D6F76652046696C616D656E7400416471
:1023C000642046696C616D656E74006261636B00C8
:1023D000526573656E643A20006F6B0020746F6FF6
:1023E000206C6F6E6720657874727573696F6E20EC
:1023F00070726576656E7465640A0020636F6C6444
:1024000020657874727573696F6E20707265766579
:102410006E7465640A00627573793A207061757331
:10242000656420666F7220696E7075740A0062754B
:1024300073793A2070617573656420666F722075D8
:102440007365720A00627573793A2070726F636502
:102450007373696E670A004B494C4C45442E20004B
:102460004B494C4C20636175736564206279204B45
:10247000494C4C20627574746F6E2F70696E0A003F
:102480004B494C4C45442E20004B494C4C20636139
:102490007573656420627920746F6F206D75636851
:1024A00020696E6163746976652074696D65202D9D
:1024B0002063757272656E7420636F6D6D616E64FA
:1024C0003A20005072696E7465722068616C7465A0
:1024D000642E206B696C6C28292063616C6C6564C8
:1024E000210A00656E7175657565696E6720220049
:1024F0000000F04200000000000000000000484220
:102500000000484200008040000000000000F0424F
:10251000000007430000C84201FFFF7C3C3E5E2BE9
:102520003D3F2F5B5D3B2C2A225C0020746F6F20A7
:102530006C6F6E6720657874727573696F6E20704A
:10254000726576656E7465640A0020636F6C642042
:10255000657874727573696F6E2070726576656EDA
:102560007465640A0040012C0173012201AB01185B
:1025700001F3010E0148020401AC02FA002A03F043
:1025800000C303E6008004DC006D05D2006C06C8C1
:1025900000C707BE007009B4006D0BAA00CB0DA0E8
:1025A00000CF138C00F21B7800E9246400142E5035
:1025B000009C353C00B83A2800A03D14000B3F00B9
:1025C000006265640A002C2073797374656D207352
:1025D000746F7070656421204865617465725F492D
:1025E000443A2000544845524D414C2052554E41EA
:1025F00057415900546865726D616C2052756E6167
:102600007761790048656174696E67206661696CFD
:1026100065640048656174696E67206661696C6510
:1026200064004572723A204D494E54454D50004D5C
:10263000494E54454D5020747269676765726564F0
:10264000004572723A204D415854454D50004D415D
:102650005854454D5020747269676765726564000F
:10266000000000000000000000000000000000006A
:10267000000000000000000000000000000000005A
:10268000000000000000000000000000000000004A
:1026900000000000000000000007C0000000000073
:1026A0000000000000000037007FBC0000000000B8
:1026B00000000000000000FFFFFFBF8000000000DE
:1026C00000000000000007FFFFFF7FC000000000C7
:1026D0000000000000001FEFFFFF7FFF0000000070
:1026E0000000000000003FEFFFFFFFFFE0000000E0
:1026F000000000000000FFEFFFFFFFE030000000DF
:10270000000000000003FFFFFFFFFFF000000000DB
:10271000000000000007FFFFFFFFFFF000000000C7
:10272000000000000037FFFFFFFF7FF00000000007
:102730000000000017F7FFEFFFFF7FF00000000030
:10274000000000001FF7FFEFFFFF7FF00000000018
:10275000000000000FF7FFFFFFFFBFF800000000C0
:10276000000000000FF7FFF7FFFFBFF800000000B8
:10277000000000000FFFFFF7FFFFBFFC000000009C
:10278000000000000FFBFFF7FFFFBFFC0000000090
:10279000000000000FFBFFFFFFFFFFFC0000000038
:1027A000000000008FFDFFFBFFFFDFF800000000CE
:1027B00000000000FFFCFFFBFFFFBFF60000000071
:1027C000000000047FFEFFFBFFFF1FEF0000000082
:1027D000000000067FFF25FBFFFCEFDF800000000C
:1027E00000000007FFFF3E70FFF0F3DFC0000000B5
:1027F00000000003FFFC3F800F807DBFC000000091
:1028000000000001FFF81FD80000FFBF800000009B
:1028100000000001FFE00FDF0001FF1F800000004B
:10282000000000007FC00FFF8003FE1F00000000BB
:10283000000000003F800FBF8003F83F0000000051
:10284000000000003F000F9FC007C03E00000000D6
:10285000000000001C001F00C00FC07E0000000030
:102860000000000000000000000000000000000068
:102870000000000000000000000000000000000058
:102880000000000000000000000000000000000048
:102890000000000000000000000000000000000038
:1028A000000000038C70E0E0CC1C1807C0000000A2
:1028B000000000039C70F0F1CE1C3C0FE000000013
:1028C000000000039C71F0F1CE1C3C1FF0000000E2
:1028D000000000039C71F0F9CE1C7E3C78000000E3
:1028E000000000039C71F8FDCFFC7E38380000002A
:1028F000000000019EE3B8FFCFFC6738180000001D
:1029000000000001DEE3B8EFCFFCE738380000003C
:1029100000000001FFC3FCE7CE1CFF3C38000000B4
:1029200000000000F7C7FCE3CE1CFF9FF000000092
:1029300000000000F3871EE3CE1DE38FF0000000CF
:102940000000000073870EE1CE1DC3C7C000000069
:102950000000000000000000000000000000000077
:102960000000000000000000000000000000000067
:102970000000000000000000000000000000000057
:102980000000000000000000000000000000000047
:102990000000000000000000000000000000000037
:1029A0000000000000000000000000000000000027
:1029B0000000000000000000000000000000000017
:1029C0000000000000000000000000000000000007
:1029D00000000000000000000000000000000000F7
:1029E00000000000000000000000000000000000E7
:1029F00000000000000000000000000000000000D7
:102A000000000000000000000000000000000000C6
:102A100000000000000000000000000000000000B6
:102A200000000000000000000000000000000000A6
:102A30000000000000000000000000000000000096
:102A40000000000000000000000000000000000086
:102A50000000000000000000000000000000000076
:102A600000060900FE000000000001090008FE0049
:102A70000005080806000040F0C88888987810050E
:102A80000808060000C0F88888888888F8050505C9
:102A90000600012030F830200508080600002070EC
:102AA000F820202020E00509090600FF2070A8A8D2
:102AB000B8888870200509090600FFE080C0B0A82A
:102AC000283028280509090600FFF8A88888888882
:102AD00088A8F8050A0A0600FE205050505088A821
:102AE000A8887003030306000340A0405361766585
:102AF0002073657474696E67004E6F7A7A6C650036
:102B00004E6F7A7A6C65006261636B0043616E6E32
:102B10006F7420656E746572207375626469723AB1
:102B20002000022E2E006261636B004361726420FC
:102B300072656D6F766564004361726420696E73BF
:102B4000657274656400290A002062797465733BBC
:102B500020637263200053657474696E6773205339
:102B6000746F726564202800202863616C63756C43
:102B70006174656429210A0020213D2000454550EB
:102B8000524F4D20435243206D69736D61746368E9
:102B9000202D202873746F726564292000290A0093
:102BA0002062797465733B20637263200020737424
:102BB0006F7265642073657474696E6773207265E3
:102BC00074726965766564202800204D61726C69B5
:102BD0006E3D563132290A0028454550524F4D3D31
:102BE00000454550524F4D2076657273696F6E20D7
:102BF0006D69736D6174636820002020506C616E94
:102C00006E657242756666657242797465733A20C4
:102C1000002046726565204D656D6F72793A20001F
:102C2000436F6D70696C65643A204175672031347B
:102C300020323031390A00207C20417574686F726F
:102C40003A20286E6F6E652C2064656661756C7421
:102C500020636F6E666967290A00323031372D3084
:102C6000372D30342031323A303000204C617374CB
:102C700020557064617465643A2000312E312E3421
:102C80000A004D61726C696E0020536F6674776143
:102C900072652052657365740A0020576174636819
:102CA000646F672052657365740A002042726F7703
:102CB0006E206F75742052657365740A0020457824
:102CC0007465726E616C2052657365740A00506F92
:102CD00077657255700A0073746172740A006572C8
:102CE000726F722077726974696E6720746F2066E4
:102CF000696C650A00205A3A0020593A0020583A77
:102D000000656E6473746F7073206869743A200094
:102D1000446F6E6520736176696E672066696C65C5
:102D20002E0A004D32390057726974696E6720743B
:102D30006F2066696C653A20006F70656E20666171
:102D4000696C65642C2046696C653A20006F70657B
:102D50006E206661696C65642C2046696C653A205A
:102D60000046696C652073656C65637465640A0070
:102D70002053697A653A200046696C65206F70655A
:102D80006E65643A20006F70656E206661696C65DF
:102D9000642C2046696C653A20002066696C653AAF
:102DA00020004E6F7720002220706F730022207069
:102DB0006172656E743A2200535542524F55544920
:102DC0004E452043414C4C207461726765743A2231
:102DD000004B494C4C45442E2000747279696E6753
:102DE00020746F2063616C6C207375622D67636F54
:102DF00064652066696C6573207769746820746FF8
:102E00006F206D616E79206C6576656C732E204D38
:102E10004158206C6576656C2069733A0043616E99
:102E20006E6F74206F70656E2073756264697220B6
:102E3000006175746F25692E6700534420636172C9
:102E400064206F6B0A006F70656E526F6F7420663E
:102E500061696C65640A00766F6C756D652E696ECC
:102E60006974206661696C65640A004572726F72EC
:102E70003A00534420696E6974206661696C0A00E7
:102E80004572726F722077726974696E6720746F11
:102E900020454550524F4D210A00000021002400DA
:102EA00027002A002D00300033000101000004013A
:102EB00007010A0100002200250028002B002E0037
:102EC0003100340002010000050108010B0100007F
:102ED00020002300260029002C002F0032000001D2
:102EE000000003010601090105050505070508089D
:102EF0000808020202020A0A080804040404010184
:102F00000101010101010303030303030303040798
:102F100007070C0C0C0C0C0C0C0C0202020206062F
:102F20000606060606060B0B0B0B0B0B0B0B010222
:102F300010202008081020401020408002010201CB
:102F40000804020101020408102040808040201083
:102F500008040201800402018040201008040201DC
:102F60000804020101020408102040800102040844
:102F70001020408000000A0B02090C0D0E08070308
:102F8000040100000000000000000000000000003C
:102F90000000000000000000000000000000000031
:102FA00012111000000000000000000000000000EE
:102FB000000000000000000000006563686F3A0038
:102FC0004D3234004D32332025730000A4C35ABF64
:102FD00011241FBECFEFD1E2DEBFCDBF00E00CBF9A
:102FE00015E0A0E0B2E0E8EBF1EA01E00BBF02C0BF
:102FF00007900D92AA37B107D9F725E1AAE7B5E006
:1030000001C01D92A632B207E1F717E1C7EED7E182
:1030100000E006C021970109802FFE010E9439D0EF
:10302000C63ED10780E00807A9F70E947BBF0C9439
:10303000CBD00C9400002F923F924F925F926F92F0
:103040007F928F929F92AF92BF92CF92DF92EF9238
:10305000FF920F931F93CF93DF93CDB7DEB7CB567D
:10306000D1090FB6F894DEBF0FBECDBF0091210F7E
:1030700020E6029F800111240F55124F8091E10C30
:1030800080FF1AC0EAEBFFE284917F013FEFE31A71
:10309000F30A811102C0780104C00E948860F70120
:1030A000F3CFD7018D917D01882319F00E948860AC
:1030B000F8CF8AE00E94886081E090E090936B0CEA
:1030C00080936A0C10929905109298058FE3809373
:1030D000A3051092A2051092A10584E0E4E9F5E0B1
:1030E000DF011D928A95E9F7F80180810F5F1F4F7C
:1030F0008032D1F38E34C9F4818190ED980F9A30EB
:1031000020F08D3211F08B3281F4DF0112969D0197
:103110002F5F3F4F8C9180538A3010F4D901F7CF45
:10312000FD01119680818032D9F3F093720CE09307
:10313000710C7F01BFEFEB1AFB0A10816AE270E0AD
:10314000C7010E9493D0009731F0FC013197808134
:103150008032E1F311821D3431F1143521F117343D
:1031600011F1EAEBFFE284918F010F5F1F4F88237B
:1031700021F00E948860F801F6CF6091710C709187
:10318000720C87E395E00E94315C82E20E948860C5
:103190008AE00E94886010926B0C10926A0C0E9468
:1031A000377F0C948430C701FC01208101962032C6
:1031B000D9F320532A30A8F61093A30580E090E0BD
:1031C0006AE03196DF0111972C91022E000C330B2F
:1031D00020533109689FA001699F500D1124C90136
:1031E000840F951F208120532A3058F39093A20515
:1031F0008093A105DF0131962C912032D9F31D3443
:10320000D1F48E31910591F03CF48731910571F044
:103210008C31910581F40AC08537910564F08737B8
:10322000910524F0803AE3E09E0729F4B0939905D4
:10323000A093980584C0109299051092980500916A
:10324000710C41E050E0FD0131962C91222309F4EC
:1032500076C02132A9F41D3499F48032910581F4AD
:10326000F0939905E093980563E270E0CF010E9426
:1032700093D0009711F40C949423DC011C925FC04E
:103280003FEBD32ED20E69E1C62ECD14C0F1BF01A3
:10329000FB0130816F5F7F4F3032D1F360ED630F00
:1032A0006A3040F063ED630F623020F03B3211F082
:1032B0000C94512EBF01AD2CB12C7501A3E0F594F7
:1032C000E794AA95E1F797012C563A4F79012D2DF5
:1032D0002770DA0102C0AA0FBB1F2A95E2F79D01F1
:1032E000D7013C91232B2C936115710511F0601BC4
:1032F00001C060E0D501A658BA4F6C930AC0209176
:10330000980530919905232B21F4B0939905A0934A
:103310009805208121542A3110F4DF0194CFDF0178
:10332000BD016F5F7F4F2C9120532A3010F4DB01D9
:10333000F7CFFD01119620812032D9F3EECF809195
:10334000A3058D3411F40C949423843511F40C945A
:103350000F2E873409F005CF2090A1053090A205EB
:10336000BCE12B16310409F4F7C58CF4F4E02F16F8
:1033700031043CF422E022163104CCF537FE2DC096
:103380000ACF34E02316310409F4A2C504CF4AE27F
:103390002416310411F40C94DF225CF48DE128161C
:1033A000310409F4DDC59EE12916310409F4F5C79D
:1033B000F2CEABE52A16310411F40C944A22BCE596
:1033C0002B16310411F40C944F22EAE52E16310429
:1033D00009F0E1CE10929F05DECE80914C02882349
:1033E00009F4D9CE0E94B83C0E942A7ED4CE8091A6
:1033F0004C02882309F4CFCE0E94B83C82E50E949B
:103400005A60882309F452C10E94F85F4B015C01A5
:1034100020915311309154114091551150915611F2
:1034200028AF39AF4AAF5BAF8091571190915811D7
:10343000A0915911B0915A118CAF9DAFAEAFBFAFF3
:103440002091870C3091880C4091890C50918A0C06
:103450002C962CAF3DAF4EAF5FAF2C9780918B0C6D
:1034600090918C0CA0918D0CB0918E0C24968CAF09
:103470009DAFAEAFBFAF249720E030E0A901C501FA
:10348000B4010E94F7C8882309F440C12C962CADE2
:103490003DAD4EAD5FAD2C9768AD79AD8AAD9BADBE
:1034A0000E94F7C881110FC024962CAD3DAD4EADE2
:1034B0005FAD24976CAD7DAD8EAD9FAD0E94F7C81A
:1034C000882309F423C111E092E02916310409F0A0
:1034D00010E020E030E0A901C501B4010E94F7C866
:1034E000881F8827881F181759F020E030E040E82F
:1034F0005FEB64962CAF3DAF4EAF5FAF64970AC0F1
:1035000080E090E0A0E8BFE364968CAF9DAFAEAFE3
:10351000BFAF649728AD39AD4AAD5BAD2C966CADAD
:103520007DAD8EAD9FAD2C970E9420CD28966CAFBF
:103530007DAF8EAF9FAF28972CAD3DAD4EAD5FAD4B
:1035400024966CAD7DAD8EAD9FAD24970E9420CDAD
:103550006B017C0128962CAD3DAD4EAD5FAD28973B
:10356000CA01B9010E945CC92B013C01A701960167
:10357000C701B6010E945CC99B01AC01C301B20145
:103580000E9421CD0E948CCF60966CAF7DAF8EAF34
:103590009FAF609720E030E040E05FE30E945CC9AD
:1035A0002B013C01A5019401C501B4010E945CC935
:1035B0004B015C01A3019201C301B2010E945CC9ED
:1035C0009B01AC01C501B4010E9420CD0E948CCFAB
:1035D00064962CAD3DAD4EAD5FAD64970E945CC965
:1035E0004B015C01C701B601905860962CAD3DAD12
:1035F0004EAD5FAD60970E94FDCDA50194010E9484
:103600005CC96B017C012C962CAD3DAD4EAD5FAD20
:103610002C9768AD79AD8AAD9BAD0E9421CD20E09D
:1036200030E040E05FE30E945CC99B01AC01C70150
:10363000B6010E9421CD28AD39AD4AAD5BAD0E94E7
:1036400020CD6B017C0124962CAD3DAD4EAD5FAD20
:1036500024976CAD7DAD8EAD9FAD0E9421CD20E055
:1036600030E040E05FE30E945CC92B013C016096C2
:103670002CAD3DAD4EAD5FAD609728966CAD7DAD88
:103680008EAD9FAD28970E94FDCDA50194010E94AB
:103690005CC99B01AC01C301B2010E9421CD2CADDC
:1036A0003DAD4EAD5FAD0E9420CD14C089E40E94B7
:1036B0005A60882329F00E94F85F6B017C0103C0E7
:1036C000C12CD12C76018AE40E945A60882309F12A
:1036D0000E94F85F2C966CAF7DAF8EAF9FAF2C979A
:1036E00020E030E0A901C701B6010E94F7C88111AE
:1036F0001FC020E030E0A9012C966CAD7DAD8EADF1
:103700009FAD2C970E94F7C8811112C0EBE6FEE234
:10371000CCC320E030E0A901C701B6010E94F7C880
:103720008823A1F32C961CAE1DAE1EAE1FAE2C97A7
:10373000A7019601505828AF39AF4AAF5BAF2C961E
:103740008CAD9DADAEADBFAD2C97B0588CAF9DAFDD
:10375000AEAFBFAFCA01B9010E945CC94B015C01A9
:103760002CAD3DAD4EAD5FADCA01B9010E945CC943
:103770009B01AC01C501B4010E9421CD0E948CCFF8
:10378000A4966CAF7DAF8EAF9FAFA49720915311DD
:1037900030915411409155115091561124962CAFEF
:1037A0003DAF4EAF5FAF2497A701960124966CAD55
:1037B0007DAD8EAD9FAD24970E9421CD64966CAFF8
:1037C0007DAF8EAF9FAF6497809157119091581144
:1037D000A0915911B0915A1160968CAF9DAFAEAFC8
:1037E000BFAF60972C962CAD3DAD4EAD5FAD2C9725
:1037F000BC01CD010E9421CDA8966CAF7DAF8EAFEC
:103800009FAFA8972091870C3091880C4091890C2C
:1038100050918A0C68962CAF3DAF4EAF5FAF689762
:1038200064962CAD3DAD4EAD5FAD649768966CADC2
:103830007DAD8EAD9FAD68970E9420CD6B017C0160
:1038400080918B0C90918C0CA0918D0CB0918E0C72
:103850006C968CAF9DAFAEAFBFAF6C97A8962CADFA
:103860003DAD4EAD5FADA897BC01CD010E9420CD0E
:103870004B015C0120915B1130915C1140915D1115
:1038800050915E11A0962CAF3DAF4EAF5FAFA097A9
:1038900060918F0C7091900C8091910C9091920C92
:1038A0000E9420CD28966CAF7DAF8EAF9FAF28973A
:1038B000A701960168AD79AD8AAD9BAD0E945CC948
:1038C0002B013C01A50194016CAD7DAD8EAD9FAD8A
:1038D0000E945CC99B01AC01C301B2010E9421CDD1
:1038E0002B013C01A501940168AD79AD8AAD9BAD7A
:1038F0000E945CC94B015C01A70196016CAD7DADD6
:103900008EAD9FAD0E945CC99B01AC01C501B401A5
:103910000E9420CDA30192010E9494CD6B017C01F5
:1039200020E030E0A9010E94F7C887FF0AC02BED14
:103930003FE049EC50E4C701B6010E9421CD6B0184
:103940007C0132E02316310451F42BED3FE049ECC9
:1039500050E4C701B6010E9420CD6B017C0120E03C
:1039600030E0A901C701B6010E94F7C8811128C043
:1039700068962CAD3DAD4EAD5FAD689724966CADAD
:103980007DAD8EAD9FAD24970E94F7C8811118C000
:103990006C962CAD3DAD4EAD5FAD6C9760966CAD49
:1039A0007DAD8EAD9FAD60970E94F7C8811108C0B4
:1039B0007BEDC72E7FE0D72E79ECE72E70E4F72E53
:1039C000A7019601A4966CAD7DAD8EAD9FADA49779
:1039D0000E945CC99B01AC010E945CC94B015C0167
:1039E00028962CAD3DAD4EAD5FAD2897CA01B9010B
:1039F0000E945CC99B01AC01C501B4010E9421CDAC
:103A00000E948CCF4B015C012FE632E143E85AE380
:103A10000E94F7C887FD43C2C501B4010E9496CE3B
:103A20000E946ACE2E967FAF6EAF2E97672B31F431
:103A300081E090E02E969FAF8EAF2E9740905F1161
:103A40005090601160906111709062112E96AEAD31
:103A5000BFAD2E97BD0180E090E00E94FBC84B01F6
:103A60005C019B01AC01C701B6010E94FDCD24960B
:103A70006CAF7DAF8EAF9FAF2497A50194012896C0
:103A80006CAD7DAD8EAD9FAD28970E94FDCDA49607
:103A90006CAF7DAF8EAF9FAFA497A30192016091F1
:103AA000930C7091940C8091950C9091960C0E94BF
:103AB00020CDA50194010E94FDCDAC966CAF7DAFE9
:103AC0008EAF9FAFAC9724962CAD3DAD4EAD5FADA4
:103AD0002497CA01B9010E945CC920E030E040E0AF
:103AE0005FE30E945CC99B01AC0160E070E080E88C
:103AF0009FE30E9420CD68966CAF7DAF8EAF9FAFE5
:103B00006897A0962CAD3DAD4EAD5FADA0972987CF
:103B10003A874B875C874D865E866F86788A609190
:103B2000330270913402072E000C880B990B0E940F
:103B3000FDC82091350230913602409137025091F4
:103B400038020E945CC92AE037ED43E25CE30E9440
:103B50005CC96C966CAF7DAF8EAF9FAF6C970E94C7
:103B6000C4BC9B01AC0128533F4F4F4F5F4FA09601
:103B70002CAF3DAF4EAF5FAFA09748AC59AC6AAC2D
:103B80007BAC22242394312C39E125963FAF259735
:103B90002E964EAD5FAD2E974215530509F441C1E7
:103BA0000E942A980E94C4BCDC01CB01A0962CADD7
:103BB0003DAD4EAD5FADA097821B930BA40BB50B33
:103BC000B7FD10C00E94C4BC9B01AC0128533F4FFD
:103BD0004F4F5F4FA0962CAF3DAF4EAF5FAFA0975A
:103BE0000E94597B25963FAD2597315025963FAFD2
:103BF0002597332309F445C02CAD3DAD4EAD5FADE7
:103C000068966CAD7DAD8EAD9FAD68970E945CC926
:103C10006B017C019201A30124966CAD7DAD8EAD4C
:103C20009FAD24970E945CC9A70196010E9421CDF7
:103C30006B017C019201A30168966CAD7DAD8EADE8
:103C40009FAD68970E945CC94B015C012CAD3DADF6
:103C50004EAD5FAD24966CAD7DAD8EAD9FAD24971E
:103C60000E945CC99B01AC01C501B4010E9420CD3A
:103C70002B013C01C601D7018CAF9DAFAEAFBFAFEA
:103C800055C0B10180E090E00E94FBC824962CADA5
:103C90003DAD4EAD5FAD24970E945CC94B015C0108
:103CA0000E94FACD6B017C01C501B4010E9482CF54
:103CB0004B015C01A701960168AD79AD8AAD9BAD62
:103CC0000E945CC92B013C012C962CAD3DAD4EAD44
:103CD0005FAD2C97C501B4010E945CC9A30192019C
:103CE0000E9421CD2B013C01A501940168AD79AD65
:103CF0008AAD9BAD0E945CC94B015C012C962CAD3A
:103D00003DAD4EAD5FAD2C97C701B6010E945CC9B9
:103D10009B01AC01C501B4010E9420CD6CAF7DAF09
:103D20008EAF9FAF49E125964FAF25979201A30132
:103D300064966CAD7DAD8EAD9FAD64970E9421CD34
:103D400069837A838B839C832CAD3DAD4EAD5FAD93
:103D5000A8966CAD7DAD8EAD9FADA8970E9421CD8C
:103D60006D837E838F839887A4962CAD3DAD4EAD39
:103D70005FADA49769857A858B859C850E9421CD4E
:103D800069877A878B879C87AC962CAD3DAD4EAD0D
:103D90005FADAC976D857E858F8598890E9421CD1A
:103DA0006D877E878F87988B80910E02882321F004
:103DB000CE0101960E945379C0903A0F89819A8171
:103DC000AB81BC8188A399A3AAA3BBA38D819E814B
:103DD000AF81B8858CA39DA3AEA3BFA389859A8527
:103DE000AB85BC8588A799A7AAA7BBA7CE0180965B
:103DF0000E9475606C96ECACFDAC0EAD1FAD6C977F
:103E00009E01235F3F4FAE01485D5F4FBE016C5D79
:103E10007F4FCE0180960E946F865FEF251A350A8C
:103E2000B7CEC0903A0F8091870C9091880CA091EA
:103E3000890CB0918A0C88A399A3AAA3BBA38091F3
:103E40008B0C90918C0CA0918D0CB0918E0C8CA34E
:103E50009DA3AEA3BFA380918F0C9091900CA091D5
:103E6000910CB091920C88A799A7AAA7BBA7CE01E5
:103E700080960E9475606C96ECACFDAC0EAD1FADEB
:103E80006C9723E93CE0AE01485D5F4FBE016C5D7D
:103E90007F4FCE0180960E946F860E94F73D0E9460
:103EA0007D6079C90E948860F80184918F010F5F5D
:103EB0001F4F8111F7CFE7EEF1E084918F010F5F83
:103EC0001F4F882309F467C90E948860F801F5CF65
:103ED00080E50E945A60882329F00E94B85F6B0138
:103EE0007C0103C0C12CD12C760183E50E945A606D
:103EF000882361F00E94F85F20E030E04AE754E454
:103F00000E945CC90E946ACE6B017C010E94F09AFB
:103F10000E947D608091730C9091740CA091750C3F
:103F2000B091760CC80ED91EEA1EFB1E8091640269
:103F3000811105C060E08DEF91E00E947A6A0E94D5
:103F4000C4BCDC01CB018C199D09AE09BF09B7FFC8
:103F500022C90E94597BF3CF80E00E94A33F1BC976
:103F600083E50E945A60882319F00E94D85F01C03F
:103F700080E0863068F0E4EAF2E084918F010F5F20
:103F80001F4F882309F407C90E948860F801F5CF04
:103F9000823009F445C0A0F48823E9F0813009F0AB
:103FA000F8C10E940345109201021092000281E7BD
:103FB00092E090935211809351110E940E5FE9C1DB
:103FC000843009F4D7C108F475C1853009F0E1C126
:103FD0000E94A63DDEC18091CD0580FD03C0E4E8CE
:103FE000F2E013C00E94B35F882319F06FE173E021
:103FF00002C063E273E08CE792E00E94315C8AE0E9
:104000000E9488600E94043CC4C184918F010F5FAC
:104010001F4F882309F4BDC10E948860F801F5CFC5
:10402000009100021091010217FF0DC0E8E4F2E0D8
:1040300084918F010F5F1F4F882309F4ACC80E9441
:104040008860F801F5CF0115110529F480910E0261
:104050008093A0050CC08FEF800F0E9457BD809108
:10406000A00580930E02043011050CF0CAC0802F09
:10407000817887FF03C081508E6F8F5FA82EE02F5D
:1040800007FF02C0E1E0E00FBE2EB594B0FE03C012
:10409000A1E0AA2EA81AC0903502D0903602E09076
:1040A0003702F090380204E015E2F801859195910D
:1040B000A591B4918093350290933602A093370274
:1040C000B093380220E030E0A90160912F0F709189
:1040D000300F8091310F9091320F0E9421CD20E05E
:1040E00030E040EA50E40E9421CD60935B11709370
:1040F0005C1180935D1190935E110E945C3E85E59A
:1041000095E5A5E0B3E48093350290933602A09341
:104110003702B09338028A2D94E08902D00111242D
:10412000A152BE4E2091270F3091280F4091290FA8
:1041300050912A0F6D917D918D919C910E9421CD7E
:1041400060935311709354118093551190935611AD
:10415000AB2DB4E0AB02F0011124E952FE4E2091E8
:104160002B0F30912C0F40912D0F50912E0F60810D
:104170007181828193810E9421CD60935711709348
:1041800058118093591190935A110E945C3EF80186
:1041900085919591A591B4918093350290933602C3
:1041A000A0933702B093380220E030E0A90160917B
:1041B0002F0F7091300F8091310F9091320F0E942C
:1041C00021CD60935B1170935C1180935D1190938E
:1041D0005E110E945C3EC0923502D0923602E0929F
:1041E0003702F09238020E94F09A10920E028091EB
:1041F00000029091010201969093010280930002C7
:10420000C8C020E030E0A90160912F0F7091300FFD
:104210008091310F9091320F0E9421CD20E030E04B
:1042200040EA50E40E9421CD60935B1170935C11D1
:1042300080935D1190935E110E945C3E0E94F09A03
:104240008FEF9FEF9093010280930002E4E3F2E08E
:1042500084918F010F5F1F4F882321F00E94886097
:10426000F801F6CF83E992E09A83898304E610E0AF
:1042700019A308A3BE016F5F7F4FCE0180960E94F5
:10428000DEAB8AEB92E09A83898319A308A3BE016F
:104290006F5F7F4FCE0180960E94DEAB8091CD058F
:1042A00081608093CD0581E00E94A33F81E00E9460
:1042B000823D6FC088E50E945A608823A1F00E9469
:1042C000C85F1FEF160F1230A8F0EDE1F2E0849105
:1042D0008F010F5F1F4F882311F40C94CB180E949D
:1042E0008860F801F4CF88E50E9488600E943CBF96
:1042F0000C94CB1889E50E945A608823A1F00E9493
:10430000C85F0FEF060F0230A8F0E6E0F2E08491FC
:104310008F010F5F1F4F882311F40C94CB180E945C
:104320008860F801F4CF89E50E9488600E943CBF54
:104330000C94CB188AE50E945A608823A1F00E9451
:10434000F85FE12FEE0FFF0BE00FF11D07FDFA956F
:10435000EE0FFF1FEE0FFF1FED59FE4E60837183BE
:104360008283938316C08AE50E9488600E943CBFC6
:104370000C94CB188AE50E945A608823A1F30E940E
:10438000F85F6093CE057093CF058093D00590932E
:10439000D1050E94274E0C94CB18C0905311D09099
:1043A0005411E0905511F090561188E50E945A6022
:1043B000811108C020E030E0A901C701B6010E94C8
:1043C00021CD02C00E94F85F6B017C0180905711E3
:1043D00090905811A0905911B0905A1189E50E94FF
:1043E0005A60811109C020E030E040EF51E4C5017E
:1043F000B4010E9421CD02C00E94F85F4B015C0114
:104400002091270F3091280F4091290F50912A0FAA
:10441000C701B6010E9420CD2B013C012FE632E1FD
:1044200043E85AEB0E9447CF87FF02C00C94CB1899
:1044300023E830E040EF52E4C301B2010E94F7C824
:10444000181614F40C94CB1820912B0F30912C0FCC
:1044500040912D0F50912E0FC501B4010E9420CD27
:104460002B013C0124EF3DEF4FEE51E40E9447CF7A
:1044700087FF02C00C94CB1822E430E047E053E4FD
:10448000C301B2010E94F7C8181614F40C94CB189B
:104490000C94622E81E080939F050C94CB1885E4E8
:1044A0000E945A60B82E811102C00E94F09A2DEA33
:1044B000822E22E0922E33E5C32E31E1D32E4BE73C
:1044C000E42E4CE0F42E00E010E0A12CD4018D91FC
:1044D0004D010E945A60882339F1F60140805180D5
:1044E000628073800E94F85FD6016D937D938D93F7
:1044F0009C9313970330C1F0A30192010E9420CD39
:104500009B01AC01F70160817181828193810E94DE
:1045100021CDD7016D937D938D939C931397C80103
:104520000E948C40AA24A3940F5F1F4FB4E0CB0ECF
:10453000D11CE4E0EE0EF11C0430110539F6AA207E
:1045400019F00E946D5F37C0BB20A9F1C0905F11C8
:10455000D0906011E0906111F090621120910406FA
:10456000309105064091060650910706C701B60135
:104570000E945CC90E9452CF6093D1117093D211F6
:104580008093D3119093D411C701B6010E9465CED8
:104590002FB7F8946093F90C7093FA0C8093FB0C8E
:1045A0009093FC0C2FBF1092C1111092C211109267
:1045B000C3111092C4110E94274E0C94CB18809105
:1045C0004C02882311F40C94CB1889E40E945A60A1
:1045D000F82E882321F00E94C85F062F01C000E05A
:1045E0008AE40E945A60E82E882321F00E94C85F66
:1045F000162F01C010E0FF2011F0023020F4EE2051
:1046000081F0123070F0EDECF2E084918F010F5FD9
:104610001F4F882311F40C94CB180E948860F80176
:10462000F4CF0E94ED3DFF20E1F024E00202F00112
:104630001124E152FE4E2091270F3091280F409116
:10464000290F50912A0F60817181828193810E948C
:1046500021CD6093870C7093880C8093890C909384
:104660008A0CEE20E1F034E01302F0011124E9524B
:10467000FE4E20912B0F30912C0F40912D0F509119
:104680002E0F60817181828193810E9421CD609380
:104690008B0C70938C0C80938D0C90938E0C80E51A
:1046A0000E942B608823E1F00E94E95F8823C1F01B
:1046B000EE20B1F020E030E040EF51E460918B0C4F
:1046C00070918C0C80918D0C90918E0C0E9420CD5D
:1046D00060938B0C70938C0C80938D0C90938E0C4C
:1046E00086E40E945A608823D9F00E94F85F6B012B
:1046F0007C0120E030E0A9010E9447CF181684F425
:1047000020E030E040E752E4C701B6010E94FDCD51
:10471000609335027093360280933702909338028B
:104720000E942A7E0C94CB188091A1059091A2053D
:104730008337910509F49EC60CF0CBC08C349105EB
:1047400009F4E4C30CF06FC08831910509F418C274
:10475000D4F58231910509F4BBC5BCF497FF02C0C2
:104760000C94CB18823091050CF4BCC1419711F028
:104770000C94CB1860E08CEE92E00E947A6A8B98E1
:104780001298169888980C94CB188531910509F4E5
:10479000EDC13CF4449711F00C94CB18E4E0F3E045
:1047A000A5C18631910509F4E5C1479711F00C9434
:1047B000CB1840E061E080919805909199050E94A6
:1047C0008AAD0C94CB188E31910509F45CC2C4F407
:1047D0008A31910509F4FBC10CF4DDC18B319105DF
:1047E00009F414C24C9711F00C94CB1840E060E02F
:1047F00080919805909199050E948AAD0C94CB18F0
:104800008032910509F443C20CF48BC28A329105BF
:1048100009F43DC38B34910511F00C94CB180E9420
:1048200084AC0C94CB188936910509F4BBC424F5EB
:104830008335910509F447C57CF48135910509F468
:1048400027C50CF03CC58D34910511F00C94CB18A4
:104850000E943FBD0C94CB188535910509F466C5BF
:104860000CF436C58C35910509F47BC58836910565
:1048700009F466C30C94CB188E36910509F4A1C3D4
:104880009CF48B36910509F4F1C40CF4D0C48C3639
:10489000910509F441C48D36910511F00C94CB18A3
:1048A0000E94B1390C94CB188037910509F438C4B3
:1048B0000CF49AC38137910509F436C48237910507
:1048C00011F00C94CB180E94F09A0E94274E0C9481
:1048D000CB188A3F910511F40C94ED2C0CF074C0A8
:1048E000883C910509F46EC69CF58837910509F45A
:1048F00000C6A4F48637910509F4C0C50CF0F5C5CF
:104900008537910511F00C94CB1860E080919805E3
:10491000909199050E948F6A0C94CB188C38910560
:1049200009F42FC45CF48937910511F00C94CB186D
:10493000109258021092CB050C94CB188139910536
:1049400009F4DEC58B39910509F448C40C94CB18E1
:104950008E3C910509F49AC7FCF48B3C910509F44F
:104960009FC684F4893C910511F00C94CB183DEA64
:10497000E32E32E0F32E08EE15E048EFC42E45E0BA
:10498000D42E74C68C3C910509F4A7C68D3C9105C4
:1049900009F40FC70C94CB188C3D910509F495C709
:1049A0004CF4833D910511F00C94CB180E943753C1
:1049B0000C94CB188D3D910509F496C7823E910564
:1049C00009F4AEC70C94CB18843A41E0940711F473
:1049D0000C94952D0CF040C08336A1E09A0709F4A1
:1049E0007DC0DCF48D32E1E09E0709F4F2C734F4B7
:1049F0008C32914009F4C3C70C94CB188E3231E04D
:104A0000930711F40C94342D8F32914011F00C94D3
:104A1000CB180E94E64E0C94CB18813951E09507D3
:104A200011F40C948B2D4CF48039914011F00C94BE
:104A3000CB180E94F09A0C94CB188239E1E09E07C3
:104A400011F40C94902D8A39914011F00C94CB18EC
:104A50000E94714D0C94CB18863F21E0920711F40F
:104A60000C94A12DFCF48C3A41E0940711F40C94C1
:104A7000992D4CF4853A914011F00C94CB180E947A
:104A8000C44B0C94CB18843FB1E09B0711F40C94F9
:104A90009D2D853F914011F00C94CB180E94C4A12C
:104AA0000C94CB188335F3E09F07A1F03CF4873FCB
:104AB000914011F40C94A52D0C94CB18803A43E04E
:104AC000940709F421C1873E934011F40C94FB2D07
:104AD0000C94CB18EAEBFFE20C94B72DEBE6FEE268
:104AE0000C94E72D0E94683B0C94CB1884918F01A5
:104AF0000F5F1F4F882321F00E948860F801F6CFD6
:104B000010929B1410929A1486E492E10E945981AB
:104B10008BE1E6E4F2E1DE01159601900D928A95B3
:104B2000E1F780914412909145129C838B838BE036
:104B300093E09A83898340E050E0BE016F5F7F4F2E
:104B400082EE93E00E9491B2CE0101960E941C7BFE
:104B5000E5EFF2E084918F010F5F1F4F882311F47E
:104B60000C94CB180E948860F801F4CF0E94AFAF7C
:104B70000C94CB1810921512109216120C94CB189C
:104B800080911612882319F081E0809315120E94FB
:104B900084AC0C94CB181092151280910512909150
:104BA0000612019711F00C94CB1882E090E09093DC
:104BB0000612809305120E94C4BC60930F1270937A
:104BC000101280931112909312120C94CB188091B2
:104BD0001612882311F40C94CB1883E50E945A60B6
:104BE000882311F40C94CB180E94C85FAB01BC0160
:104BF000409391145093921460939314709394146F
:104C000080EE93E10E94B2B70C94CB1880911612FB
:104C1000811103C0E7E2F3E02AC0E5E1F3E084910B
:104C20008F010F5F1F4F882321F00E948860F801D9
:104C3000F6CF609191147091921480919314909199
:104C400094144AE00E9493608FE20E948860609111
:104C50008D1470918E1480918F14909190144AE06D
:104C60000E9493608AE00E9488600C94CB18849123
:104C70008F010F5F1F4F882311F40C94CB180E94F3
:104C80008860F801F4CF0E941E410C94CB188091EB
:104C9000151281110E94F09AE0909805F090990504
:104CA00080E50E942B60182F882319F00E94E95F8D
:104CB000182F80911612882311F40C94CB18412FD1
:104CC00061E0C7010E948AAD83E50E945A60882393
:104CD00081F00E94C85FAB01BC01409391145093D6
:104CE0009214609393147093941480EE93E10E9455
:104CF000B2B780911612882319F081E080931512C3
:104D000011110C94CB1843CF80919805909199057F
:104D100021E02093141240E060E00E948AAD0C94E0
:104D2000CB180E94CEB17B018C0120E831E541E037
:104D300050E00E94E5CCC9016DE671E00E94F6CF1B
:104D40004B015C01C801B70120E13EE040E050E0CA
:104D50000E94E5CCCA01B90128E130E040E050E012
:104D60000E94E5CC762E672EC62ED72E9CE3292EE8
:104D7000312C412C512CC801B701A20191010E9494
:104D8000E5CCF62EE72ECA01B901A20191010E94DD
:104D9000E5CCCB018E010F5F1F4F8114910499F078
:104DA000EF92FF927F936F936F927F92BF92AF9239
:104DB0009F928F9280E693E09F938F931F930F9320
:104DC0000E94C9C813C0A114B104B1F0EF92FF92C0
:104DD0007F936F936F927F92BF92AF9280E593E043
:104DE0009F938F931F930F930E94C9C80FB6F89497
:104DF000DEBF0FBECDBF30C0CD2879F0EF92FF925D
:104E00007F936F936F927F9284E493E09F938F934D
:104E10001F930F930E94C9C8E9CF892B69F0EF92C5
:104E2000FF927F936F938CE393E09F938F931F93F5
:104E30000F930E94C9C8DACFEF92FF9288E393E004
:104E40009F938F931F930F930E94C9C80F900F9049
:104E50000F900F900F900F9060E0C8010E948F6A32
:104E6000EAEBFFE284917F013FEFE31AF30A882324
:104E700021F00E948860F701F5CFB80184E793E044
:104E80000E94315C8AE00E9488600C94CB1883E514
:104E90000E945A60882311F40C94CB180E94D85FAA
:104EA000E82E80E50E945A60882339F00E94C85F8E
:104EB0008B0177FF04C00C94CB180DE010E0802F1D
:104EC000EDE8F4E09491891303C0EBE6FEE20AC03A
:104ED000319644E0E53BF407A9F70C9423300E9497
:104EE0008860F80184918F010F5F1F4F8111F7CF08
:104EF000E1E8F3E084918F010F5F1F4F882311F4E5
:104F00000C94CB180E948860F801F4CF80910512B0
:104F100090910612019711F00C94CB1882E090E06A
:104F200090930612809305120E94C4BC60930F12E6
:104F30007093101280931112909312120C94CB184C
:104F400088E690E00E94FE6081110C94CB1880915D
:104F5000E10C83FF02C00C94CB1883E50E945A60D9
:104F6000882359F10E94F85F0E9465CECB010E9410
:104F7000206A0E94F85F20E030E04AEA52E40E9492
:104F8000F7C818163CF00E943FBD60E08BE993E043
:104F90000E947A6A0E94F85F2091CB0B3091CC0B73
:104FA0004091CD0B5091CE0B0E9447CF18162CF498
:104FB00060E080E993E00E947A6A0E94DA5C0C94D7
:104FC000CB188EE40E945A60882311F40C94CB18FD
:104FD0000E94C85F60935A0C70935B0C80935C0CCA
:104FE00090935D0C0C94CB1883E50E945A60882343
:104FF00019F00E94D85F01C080E08093E10CEAEBD9
:10500000FFE284918F010F5F1F4F811103C0EBEB13
:10501000F3E004C00E948860F801F3CF84918F010F
:105020000F5F1F4F882321F00E948860F801F6CFA0
:105030008091E10C811103C0E7EBF3E034C08DEA0D
:10504000C82E83E0D82EE12CF12C20E08091E10CD9
:1050500090E00E2C02C0959587950A94E2F780FFA8
:1050600017C0BB24B394B20E222319F08CE20E9425
:105070008860F60185919491FC0184918F010F5F06
:105080001F4F882321F00E948860F801F6CF2B2D56
:105090005FEFE51AF50A82E0C80ED11C95E0E9162B
:1050A000F104A1F634C084918F010F5F1F4F882354
:1050B00071F10E948860F801F6CF8AE50E942B60AA
:1050C000882309F474C50E94F85F6B017C0120E01D
:1050D00030E040EA51EC0E9447CF87FD5BC520E0FD
:1050E00030E040EA51E4C701B6010E94F7C8181643
:1050F0000CF450C5C092230FD092240FE092250FDC
:10510000F092260F42E0C701B6010E9487618AE053
:105110000E9488600C94CB18109232020C94CB1829
:1051200082EC93E00E94297B83E50E945A60811102
:1051300003C0EAEBFFE20DC00E94D85F8093390202
:105140008D3310F40C94CB188CE3809339020C94BB
:10515000CB1884918F010F5F1F4F882321F00E948D
:105160008860F801F6CF4091390250E060E070E0CD
:105170008BEC93E00E94E45B8AE00E9488600C94D0
:10518000CB188091E10C83FF02C00C94CB1883E50F
:105190000E945A60882311F40C94CB180E94F85F87
:1051A0000C94CB1889E690E00E94FE60811111C03A
:1051B000E2EDF3E084918F010F5F1F4F882321F010
:1051C0000E948860F801F6CF0E945F398AE00E9451
:1051D000886010926B0C10926A0C96C783E50E944F
:1051E0005A60882311F40C94CB180E94D85F8093E6
:1051F000700C8D3318F08CE38093700C0E94C4BC4B
:105200006B017C012091700C30E0A8EEB3E00E94AD
:1052100011CDC60ED71EE81EF91EC0926C0CD0929E
:105220006D0CE0926E0CF0926F0C0C94CB1883E531
:105230000E945A60882339F00E94C85F8B016F3F3B
:10524000710519F010F00FEF10E080E50E945A6030
:10525000811106C01093A5050093A4050C94CB18EA
:105260000E94D85F81110C94CB18F4CF80E50E9486
:105270005A60811106C01092A5051092A4050C94E5
:10528000CB180E94C85F672B11F00C94CB18F3CF9A
:105290000E9445960E94F09A0E94247B1092A505D8
:1052A0001092A40568EE73E080E090E00E94B66979
:1052B00060E085ED93E00E947A6A0C94CB1810921E
:1052C0009E050C94CB1881E080939E050C94CB181E
:1052D00083E50E945A608823A1F00E94F85F20E0D5
:1052E00030E04AE754E40E945CC90E946ACE6093B1
:1052F0003A0270933B0280933C0290933D020C94DF
:10530000CB1888E50E942B608111B5C689E50E9403
:105310002B608111B0C68AE50E942B608111ABC65B
:1053200085E40E942B608111A6C6C0C683E50E9459
:105330002B60882311F40C94CB180E94F85F20E0B6
:1053400030E04AE754E40E945CC90E946ACE609350
:10535000770C7093780C8093790C90937A0C0C9462
:10536000CB181DEAC12E12E0D12E08EFE02E05E089
:10537000F02E10E0D6018D916D010E942B608823E4
:1053800009F46DC0133009F063C00E94F85F4B014F
:105390005C0120E030E040EA51E40E94F7C887FF5A
:1053A0004EC0A5019401609104067091050680919C
:1053B0000606909107060E94FDCD2B013C019B0142
:1053C000AC016091B50C7091B60C8091B70C9091C6
:1053D000B80C0E945CC96093B50C7093B60C8093B6
:1053E000B70C9093B80CA30192016091D10C70910D
:1053F000D20C8091D30C9091D40C0E945CC9609324
:10540000D10C7093D20C8093D30C9093D40C6091F8
:10541000E4057091E5058091E6059091E7050E940D
:10542000FBC8A30192010E945CC90E946ACE6093EE
:10543000E4057093E5058093E6059093E705809277
:10544000040690920506A0920606B092070607C0D1
:105450000E94F85FF70160837183828393831F5FEB
:10546000F4E0EF0EF11C143009F084CF0E94225EAC
:105470000C94CB180E949E4D0C94CB1885E40E948E
:105480002B60882381F00E94E95F882361F0EAEBBA
:10549000FFE284918F010F5F1F4F882321F00E944C
:1054A0008860F801F6CF81E40E942B60882381F0A8
:1054B0000E94E95F882361F0E5EEF3E084918F01BB
:1054C0000F5F1F4F882321F00E948860F801F6CFFC
:1054D0000091980510919905D8018D918D0188232F
:1054E00009F415CE0E948860F7CF0E94B8450C944D
:1054F000CB1881E0809358028093CB050C94CB1895
:1055000083E50E945A60882319F00E94C85F02C098
:1055100060E070E07B01FF24B2E0EB16F104DCF008
:10552000EBE6FEE284918F010F5F1F4F811103C0F4
:10553000E9EEF3E004C00E948860F801F3CF8491A3
:105540008F010F5F1F4F882311F40C94CB180E941A
:105550008860F801F4CF88E40E945A608823A1F0A3
:105560000E94C85F6A3A710534F06B3F71052CF0F8
:105570006AEF70E002C06AEA70E0F701EE0FFF1F09
:10558000E25CF24F7183608386E40E945A60882354
:1055900011F40C94CB180E94C85FF701EE0FFF1FA7
:1055A000E953F44F718360836F3F710519F014F074
:1055B0006FEF70E077FF02C060E070E0718360839E
:1055C0000C94CB1888EC90E00E94FE6081110C9442
:1055D000CB1884E40E942B60882309F443C00E9406
:1055E000F85F6B017C0111E020E030E0A9010E942E
:1055F000F7C8811101C010E01093CC0520E030E025
:10560000A901C701B6010E94F7C8882359F100918A
:105610009A0510E00E94F85F000F111F000F111F84
:10562000F801E55EFD4F608371838283938320E000
:1056300030E0A90160911B0270911C0280911D0253
:1056400090911E020E94F7C881110CC080E090E08A
:10565000A0EEBFE380931B0290931C02A0931D0257
:10566000B0931E020E94E57D0C94CB18F701819146
:105670007F010E942B60882351F00E94F85F0E94F6
:105680006ACED8016D937D938D939C9313970C5F95
:105690001F4FC016D10651F70E94045D0C94CB1821
:1056A0002DEAE22E22E0F22E05EC1CE0F7018191BA
:1056B0007F010E942B60882341F00E94F85FD8018F
:1056C0006D937D938D939C9313970C5F1F4FBCE05C
:1056D000053D1B0759F70C94CB1883E50E942B60FE
:1056E0008823D9F00E94F85FAB01BC014093BD0C48
:1056F0005093BE0C6093BF0C7093C00C4093B90CD8
:105700005093BA0C6093BB0C7093BC0C85E694E08C
:105710000E94FF5B8AE00E94886080E50E942B6007
:10572000882399F00E94F85FAB01BC014093BD0C47
:105730005093BE0C6093BF0C7093C00C88E494E04F
:105740000E94FF5B8AE00E94886082E50E942B60D5
:10575000882399F00E94F85FAB01BC014093C10C13
:105760005093C20C6093C30C7093C40C89E294E014
:105770000E94FF5B8AE00E94886084E50E942B60A3
:10578000882311F40C94CB180E94F85FAB01BC0184
:105790004093B90C5093BA0C6093BB0C7093BC0C43
:1057A0008BE094E00E94FF5B8AE00E9488600C948A
:1057B000CB1883E50E942B60882351F00E94F85F8C
:1057C0006093DD0C7093DE0C8093DF0C9093E00C03
:1057D00084E50E942B60882351F00E94F85F60935B
:1057E000D90C7093DA0C8093DB0C9093DC0C82E480
:1057F0000E942B60882351F00E94B85F6093D50C03
:105800007093D60C8093D70C9093D80C88E50E94A7
:105810002B60882351F00E94F85F6093A90C70936D
:10582000AA0C8093AB0C9093AC0C89E50E942B6082
:10583000882351F00E94F85F6093AD0C7093AE0C1A
:105840008093AF0C9093B00C8AE50E942B60882364
:1058500051F00E94F85F6093B10C7093B20C80938A
:10586000B30C9093B40C85E40E942B60882311F450
:105870000C94CB180E94F85F6093B50C7093B60C33
:105880008093B70C9093B80C0C94CB189DEAE92E3A
:1058900092E0F92E00E010E0F70181917F010E9473
:1058A0002B60882339F00E94F85FAB01BC01C8016E
:1058B0000E94E2400F5F1F4F0330110569F70E94FD
:1058C0006D5F0E94274E0C94CB1883E50E945A60AE
:1058D000882311F40C94CB180E94C85F7093340293
:1058E000609333020C94CB188DED90E00E94FE6023
:1058F00081110C94CB1883E50E945A60882311F41F
:105900000C94CB1800919A0510E00E94C85F000F1C
:10591000111FF801EA5BFD4F718360830C94CB1873
:1059200080E50E942B60882311F40C94CB180E9410
:10593000C85FF62EC62ED72E83E50E945A608823B4
:1059400021F00E94C85F8B0102C00FEF1FEFC8015A
:105950000196039710F00C94CB18D7FE02C00C945C
:10596000CB18EDE8F4E085EB94E02491F21611F405
:105970000C94CB1831968E179F07B9F79DC383E51A
:105980000E945A60882319F00E94C85F02C064E038
:1059900071E079A368A380E50E945A60882339F0FA
:1059A0000E94C85F6938F3E17F0730F402C068EEF7
:1059B00073E07A83698304C088E893E19A838983DA
:1059C000BE01605E7F4FCE0101960E94DEAB0C945B
:1059D000CB180E9499520C94CB1883E40E942B6040
:1059E000882341F10E94C85F77FD07C06F3F7105B2
:1059F00031F02CF06FEF70E002C060E070E0709367
:105A0000050D6093040D162F8091B011811105C012
:105A100081E08093B0110E942DAB6091791170915B
:105A20007A1119839E012F5F3F4F4FE087E791E185
:105A30000E945EAAE5EBF4E084918F010F5F1F4F97
:105A4000882321F00E948860F801F6CF6091040D50
:105A50007091050D80E090E04AE00E9493608AE03A
:105A60000E9488600C94CB1883E50E942B60182F4D
:105A7000882371F00E94F85F0E9465CE70932C021B
:105A800060932B0221E0672B09F020E020930806A9
:105A900080E50E942B60882361F020912B023091D9
:105AA0002C02232B11F00E94E95F809308060C94CE
:105AB000CB1811110C94CB18EAEBFFE284918F0103
:105AC0000F5F1F4F882321F00E948860F801F6CFF6
:105AD00080910806882319F066E873E002C067E247
